{
	"_format": "hh-sol-artifact-1",
	"contractName": "Nft",
	"sourceName": "contracts/Nft.sol",
	"abi": [
		{
			"inputs": [],
			"stateMutability": "nonpayable",
			"type": "constructor"
		},
		{
			"inputs": [
				{
					"internalType": "address",
					"name": "sender",
					"type": "address"
				},
				{
					"internalType": "uint256",
					"name": "tokenId",
					"type": "uint256"
				},
				{
					"internalType": "address",
					"name": "owner",
					"type": "address"
				}
			],
			"name": "ERC721IncorrectOwner",
			"type": "error"
		},
		{
			"inputs": [
				{
					"internalType": "address",
					"name": "operator",
					"type": "address"
				},
				{
					"internalType": "uint256",
					"name": "tokenId",
					"type": "uint256"
				}
			],
			"name": "ERC721InsufficientApproval",
			"type": "error"
		},
		{
			"inputs": [
				{
					"internalType": "address",
					"name": "approver",
					"type": "address"
				}
			],
			"name": "ERC721InvalidApprover",
			"type": "error"
		},
		{
			"inputs": [
				{
					"internalType": "address",
					"name": "operator",
					"type": "address"
				}
			],
			"name": "ERC721InvalidOperator",
			"type": "error"
		},
		{
			"inputs": [
				{
					"internalType": "address",
					"name": "owner",
					"type": "address"
				}
			],
			"name": "ERC721InvalidOwner",
			"type": "error"
		},
		{
			"inputs": [
				{
					"internalType": "address",
					"name": "receiver",
					"type": "address"
				}
			],
			"name": "ERC721InvalidReceiver",
			"type": "error"
		},
		{
			"inputs": [
				{
					"internalType": "address",
					"name": "sender",
					"type": "address"
				}
			],
			"name": "ERC721InvalidSender",
			"type": "error"
		},
		{
			"inputs": [
				{
					"internalType": "uint256",
					"name": "tokenId",
					"type": "uint256"
				}
			],
			"name": "ERC721NonexistentToken",
			"type": "error"
		},
		{
			"inputs": [
				{
					"internalType": "address",
					"name": "owner",
					"type": "address"
				}
			],
			"name": "OwnableInvalidOwner",
			"type": "error"
		},
		{
			"inputs": [
				{
					"internalType": "address",
					"name": "account",
					"type": "address"
				}
			],
			"name": "OwnableUnauthorizedAccount",
			"type": "error"
		},
		{
			"anonymous": false,
			"inputs": [
				{
					"indexed": true,
					"internalType": "address",
					"name": "owner",
					"type": "address"
				},
				{
					"indexed": true,
					"internalType": "address",
					"name": "approved",
					"type": "address"
				},
				{
					"indexed": true,
					"internalType": "uint256",
					"name": "tokenId",
					"type": "uint256"
				}
			],
			"name": "Approval",
			"type": "event"
		},
		{
			"anonymous": false,
			"inputs": [
				{
					"indexed": true,
					"internalType": "address",
					"name": "owner",
					"type": "address"
				},
				{
					"indexed": true,
					"internalType": "address",
					"name": "operator",
					"type": "address"
				},
				{
					"indexed": false,
					"internalType": "bool",
					"name": "approved",
					"type": "bool"
				}
			],
			"name": "ApprovalForAll",
			"type": "event"
		},
		{
			"anonymous": false,
			"inputs": [
				{
					"indexed": false,
					"internalType": "uint256",
					"name": "_fromTokenId",
					"type": "uint256"
				},
				{
					"indexed": false,
					"internalType": "uint256",
					"name": "_toTokenId",
					"type": "uint256"
				}
			],
			"name": "BatchMetadataUpdate",
			"type": "event"
		},
		{
			"anonymous": false,
			"inputs": [
				{
					"indexed": false,
					"internalType": "uint256",
					"name": "_tokenId",
					"type": "uint256"
				}
			],
			"name": "MetadataUpdate",
			"type": "event"
		},
		{
			"anonymous": false,
			"inputs": [
				{
					"indexed": true,
					"internalType": "address",
					"name": "previousOwner",
					"type": "address"
				},
				{
					"indexed": true,
					"internalType": "address",
					"name": "newOwner",
					"type": "address"
				}
			],
			"name": "OwnershipTransferred",
			"type": "event"
		},
		{
			"anonymous": false,
			"inputs": [
				{
					"indexed": true,
					"internalType": "address",
					"name": "from",
					"type": "address"
				},
				{
					"indexed": true,
					"internalType": "address",
					"name": "to",
					"type": "address"
				},
				{
					"indexed": true,
					"internalType": "uint256",
					"name": "tokenId",
					"type": "uint256"
				}
			],
			"name": "Transfer",
			"type": "event"
		},
		{
			"stateMutability": "payable",
			"type": "fallback"
		},
		{
			"inputs": [
				{
					"internalType": "address",
					"name": "_buyerAddress",
					"type": "address"
				},
				{
					"internalType": "string",
					"name": "_metaData",
					"type": "string"
				},
				{
					"internalType": "uint256",
					"name": "_eventId",
					"type": "uint256"
				}
			],
			"name": "addBuyer",
			"outputs": [
				{
					"internalType": "uint256",
					"name": "",
					"type": "uint256"
				}
			],
			"stateMutability": "nonpayable",
			"type": "function"
		},
		{
			"inputs": [
				{
					"internalType": "address",
					"name": "to",
					"type": "address"
				},
				{
					"internalType": "uint256",
					"name": "tokenId",
					"type": "uint256"
				}
			],
			"name": "approve",
			"outputs": [],
			"stateMutability": "nonpayable",
			"type": "function"
		},
		{
			"inputs": [
				{
					"internalType": "address",
					"name": "owner",
					"type": "address"
				}
			],
			"name": "balanceOf",
			"outputs": [
				{
					"internalType": "uint256",
					"name": "",
					"type": "uint256"
				}
			],
			"stateMutability": "view",
			"type": "function"
		},
		{
			"inputs": [],
			"name": "buyerCount",
			"outputs": [
				{
					"internalType": "uint256",
					"name": "",
					"type": "uint256"
				}
			],
			"stateMutability": "view",
			"type": "function"
		},
		{
			"inputs": [
				{
					"internalType": "address",
					"name": "",
					"type": "address"
				}
			],
			"name": "buyers",
			"outputs": [
				{
					"internalType": "address",
					"name": "buyerAddress",
					"type": "address"
				}
			],
			"stateMutability": "view",
			"type": "function"
		},
		{
			"inputs": [
				{
					"internalType": "string",
					"name": "_eventName",
					"type": "string"
				},
				{
					"internalType": "string",
					"name": "_eventVenue",
					"type": "string"
				},
				{
					"internalType": "string",
					"name": "_eventDescription",
					"type": "string"
				},
				{
					"internalType": "uint256",
					"name": "_Time",
					"type": "uint256"
				},
				{
					"internalType": "uint256",
					"name": "_Duration",
					"type": "uint256"
				},
				{
					"internalType": "address",
					"name": "_creatorAddress",
					"type": "address"
				},
				{
					"internalType": "string",
					"name": "_imgUrl1",
					"type": "string"
				},
				{
					"internalType": "string",
					"name": "_imgUrl2",
					"type": "string"
				},
				{
					"internalType": "uint256",
					"name": "_totalSupply",
					"type": "uint256"
				},
				{
					"internalType": "uint256",
					"name": "_ticketPrice",
					"type": "uint256"
				}
			],
			"name": "createEvent",
			"outputs": [
				{
					"internalType": "uint256",
					"name": "",
					"type": "uint256"
				}
			],
			"stateMutability": "nonpayable",
			"type": "function"
		},
		{
			"inputs": [],
			"name": "eventCount",
			"outputs": [
				{
					"internalType": "uint256",
					"name": "",
					"type": "uint256"
				}
			],
			"stateMutability": "view",
			"type": "function"
		},
		{
			"inputs": [
				{
					"internalType": "uint256",
					"name": "",
					"type": "uint256"
				}
			],
			"name": "events",
			"outputs": [
				{
					"internalType": "string",
					"name": "eventName",
					"type": "string"
				},
				{
					"internalType": "string",
					"name": "eventVenue",
					"type": "string"
				},
				{
					"internalType": "uint256",
					"name": "Time",
					"type": "uint256"
				},
				{
					"internalType": "uint256",
					"name": "Duration",
					"type": "uint256"
				},
				{
					"internalType": "address",
					"name": "creatorAddress",
					"type": "address"
				},
				{
					"internalType": "string",
					"name": "imgUrl1",
					"type": "string"
				},
				{
					"internalType": "string",
					"name": "imgUrl2",
					"type": "string"
				},
				{
					"internalType": "string",
					"name": "eventDescription",
					"type": "string"
				},
				{
					"internalType": "uint256",
					"name": "totalSupply",
					"type": "uint256"
				},
				{
					"internalType": "uint256",
					"name": "ticketPrice",
					"type": "uint256"
				}
			],
			"stateMutability": "view",
			"type": "function"
		},
		{
			"inputs": [
				{
					"internalType": "uint256",
					"name": "tokenId",
					"type": "uint256"
				}
			],
			"name": "getApproved",
			"outputs": [
				{
					"internalType": "address",
					"name": "",
					"type": "address"
				}
			],
			"stateMutability": "view",
			"type": "function"
		},
		{
			"inputs": [
				{
					"internalType": "address",
					"name": "_buyerAddress",
					"type": "address"
				}
			],
			"name": "getBuyerDetails",
			"outputs": [
				{
					"components": [
						{
							"internalType": "address",
							"name": "buyerAddress",
							"type": "address"
						},
						{
							"internalType": "string[]",
							"name": "metaDatas",
							"type": "string[]"
						},
						{
							"internalType": "uint256[]",
							"name": "eventIds",
							"type": "uint256[]"
						}
					],
					"internalType": "struct Nft.Buyer",
					"name": "",
					"type": "tuple"
				}
			],
			"stateMutability": "view",
			"type": "function"
		},
		{
			"inputs": [
				{
					"internalType": "address",
					"name": "owner",
					"type": "address"
				},
				{
					"internalType": "address",
					"name": "operator",
					"type": "address"
				}
			],
			"name": "isApprovedForAll",
			"outputs": [
				{
					"internalType": "bool",
					"name": "",
					"type": "bool"
				}
			],
			"stateMutability": "view",
			"type": "function"
		},
		{
			"inputs": [
				{
					"internalType": "uint256",
					"name": "_eventId",
					"type": "uint256"
				},
				{
					"internalType": "address",
					"name": "_buyerAddress",
					"type": "address"
				},
				{
					"internalType": "string",
					"name": "_metadataUrl",
					"type": "string"
				}
			],
			"name": "mintNFT",
			"outputs": [],
			"stateMutability": "payable",
			"type": "function"
		},
		{
			"inputs": [],
			"name": "name",
			"outputs": [
				{
					"internalType": "string",
					"name": "",
					"type": "string"
				}
			],
			"stateMutability": "view",
			"type": "function"
		},
		{
			"inputs": [],
			"name": "owner",
			"outputs": [
				{
					"internalType": "address",
					"name": "",
					"type": "address"
				}
			],
			"stateMutability": "view",
			"type": "function"
		},
		{
			"inputs": [
				{
					"internalType": "uint256",
					"name": "tokenId",
					"type": "uint256"
				}
			],
			"name": "ownerOf",
			"outputs": [
				{
					"internalType": "address",
					"name": "",
					"type": "address"
				}
			],
			"stateMutability": "view",
			"type": "function"
		},
		{
			"inputs": [],
			"name": "renounceOwnership",
			"outputs": [],
			"stateMutability": "nonpayable",
			"type": "function"
		},
		{
			"inputs": [
				{
					"internalType": "address",
					"name": "from",
					"type": "address"
				},
				{
					"internalType": "address",
					"name": "to",
					"type": "address"
				},
				{
					"internalType": "uint256",
					"name": "tokenId",
					"type": "uint256"
				}
			],
			"name": "safeTransferFrom",
			"outputs": [],
			"stateMutability": "nonpayable",
			"type": "function"
		},
		{
			"inputs": [
				{
					"internalType": "address",
					"name": "from",
					"type": "address"
				},
				{
					"internalType": "address",
					"name": "to",
					"type": "address"
				},
				{
					"internalType": "uint256",
					"name": "tokenId",
					"type": "uint256"
				},
				{
					"internalType": "bytes",
					"name": "data",
					"type": "bytes"
				}
			],
			"name": "safeTransferFrom",
			"outputs": [],
			"stateMutability": "nonpayable",
			"type": "function"
		},
		{
			"inputs": [
				{
					"internalType": "address",
					"name": "operator",
					"type": "address"
				},
				{
					"internalType": "bool",
					"name": "approved",
					"type": "bool"
				}
			],
			"name": "setApprovalForAll",
			"outputs": [],
			"stateMutability": "nonpayable",
			"type": "function"
		},
		{
			"inputs": [
				{
					"internalType": "bytes4",
					"name": "interfaceId",
					"type": "bytes4"
				}
			],
			"name": "supportsInterface",
			"outputs": [
				{
					"internalType": "bool",
					"name": "",
					"type": "bool"
				}
			],
			"stateMutability": "view",
			"type": "function"
		},
		{
			"inputs": [],
			"name": "symbol",
			"outputs": [
				{
					"internalType": "string",
					"name": "",
					"type": "string"
				}
			],
			"stateMutability": "view",
			"type": "function"
		},
		{
			"inputs": [],
			"name": "tokenId",
			"outputs": [
				{
					"internalType": "uint256",
					"name": "",
					"type": "uint256"
				}
			],
			"stateMutability": "view",
			"type": "function"
		},
		{
			"inputs": [
				{
					"internalType": "uint256",
					"name": "tokenId",
					"type": "uint256"
				}
			],
			"name": "tokenURI",
			"outputs": [
				{
					"internalType": "string",
					"name": "",
					"type": "string"
				}
			],
			"stateMutability": "view",
			"type": "function"
		},
		{
			"inputs": [
				{
					"internalType": "address",
					"name": "from",
					"type": "address"
				},
				{
					"internalType": "address",
					"name": "to",
					"type": "address"
				},
				{
					"internalType": "uint256",
					"name": "tokenId",
					"type": "uint256"
				}
			],
			"name": "transferFrom",
			"outputs": [],
			"stateMutability": "nonpayable",
			"type": "function"
		},
		{
			"inputs": [
				{
					"internalType": "address",
					"name": "newOwner",
					"type": "address"
				}
			],
			"name": "transferOwnership",
			"outputs": [],
			"stateMutability": "nonpayable",
			"type": "function"
		},
		{
			"stateMutability": "payable",
			"type": "receive"
		}
	],
	"bytecode": "0x60806040526001600855426009556000600a556000600d553480156200002457600080fd5b506040518060400160405280600381526020017f4e667400000000000000000000000000000000000000000000000000000000008152506040518060400160405280600381526020017f4e4654000000000000000000000000000000000000000000000000000000000081525033600073ffffffffffffffffffffffffffffffffffffffff168173ffffffffffffffffffffffffffffffffffffffff1603620001075760006040517f1e4fbdf7000000000000000000000000000000000000000000000000000000008152600401620000fe91906200024e565b60405180910390fd5b62000118816200014560201b60201c565b5081600190816200012a9190620004e5565b5080600290816200013c9190620004e5565b505050620005cc565b60008060009054906101000a900473ffffffffffffffffffffffffffffffffffffffff169050816000806101000a81548173ffffffffffffffffffffffffffffffffffffffff021916908373ffffffffffffffffffffffffffffffffffffffff1602179055508173ffffffffffffffffffffffffffffffffffffffff168173ffffffffffffffffffffffffffffffffffffffff167f8be0079c531659141344cd1fd0a4f28419497f9722a3daafe3b4186f6b6457e060405160405180910390a35050565b600073ffffffffffffffffffffffffffffffffffffffff82169050919050565b6000620002368262000209565b9050919050565b620002488162000229565b82525050565b60006020820190506200026560008301846200023d565b92915050565b600081519050919050565b7f4e487b7100000000000000000000000000000000000000000000000000000000600052604160045260246000fd5b7f4e487b7100000000000000000000000000000000000000000000000000000000600052602260045260246000fd5b60006002820490506001821680620002ed57607f821691505b602082108103620003035762000302620002a5565b5b50919050565b60008190508160005260206000209050919050565b60006020601f8301049050919050565b600082821b905092915050565b6000600883026200036d7fffffffffffffffffffffffffffffffffffffffffffffffffffffffffffffffff826200032e565b6200037986836200032e565b95508019841693508086168417925050509392505050565b6000819050919050565b6000819050919050565b6000620003c6620003c0620003ba8462000391565b6200039b565b62000391565b9050919050565b6000819050919050565b620003e283620003a5565b620003fa620003f182620003cd565b8484546200033b565b825550505050565b600090565b6200041162000402565b6200041e818484620003d7565b505050565b5b8181101562000446576200043a60008262000407565b60018101905062000424565b5050565b601f82111562000495576200045f8162000309565b6200046a846200031e565b810160208510156200047a578190505b6200049262000489856200031e565b83018262000423565b50505b505050565b600082821c905092915050565b6000620004ba600019846008026200049a565b1980831691505092915050565b6000620004d58383620004a7565b9150826002028217905092915050565b620004f0826200026b565b67ffffffffffffffff8111156200050c576200050b62000276565b5b620005188254620002d4565b620005258282856200044a565b600060209050601f8311600181146200055d576000841562000548578287015190505b620005548582620004c7565b865550620005c4565b601f1984166200056d8662000309565b60005b82811015620005975784890151825560018201915060208501945060208101905062000570565b86831015620005b75784890151620005b3601f891682620004a7565b8355505b6001600288020188555050505b505050505050565b61413580620005dc6000396000f3fe60806040526004361061016a5760003560e01c8063715018a6116100d157806397a993aa1161008a578063b88d4fde11610064578063b88d4fde1461057a578063c87b56dd146105a3578063e985e9c5146105e0578063f2fde38b1461061d57610171565b806397a993aa146104e95780639e0cea0514610526578063a22cb4651461055157610171565b8063715018a6146103f857806371be2e4a1461040f57806376e4e64d1461043a5780638da5cb5b146104775780638f839153146104a257806395d89b41146104be57610171565b806323b872dd1161012357806323b872dd146102b257806342842e0e146102db5780634e13db20146103045780636352211e1461034157806368cfe6ee1461037e57806370a08231146103bb57610171565b806301ffc9a71461017357806306fdde03146101b0578063081812fc146101db578063095ea7b3146102185780630b7914301461024157806317d70f7c1461028757610171565b3661017157005b005b34801561017f57600080fd5b5061019a60048036038101906101959190612d52565b610646565b6040516101a79190612d9a565b60405180910390f35b3480156101bc57600080fd5b506101c56106a7565b6040516101d29190612e45565b60405180910390f35b3480156101e757600080fd5b5061020260048036038101906101fd9190612e9d565b610739565b60405161020f9190612f0b565b60405180910390f35b34801561022457600080fd5b5061023f600480360381019061023a9190612f52565b610755565b005b34801561024d57600080fd5b5061026860048036038101906102639190612e9d565b61076b565b60405161027e9a99989796959493929190612fa1565b60405180910390f35b34801561029357600080fd5b5061029c610a87565b6040516102a99190613060565b60405180910390f35b3480156102be57600080fd5b506102d960048036038101906102d4919061307b565b610a8d565b005b3480156102e757600080fd5b5061030260048036038101906102fd919061307b565b610b8f565b005b34801561031057600080fd5b5061032b60048036038101906103269190613203565b610baf565b6040516103389190613060565b60405180910390f35b34801561034d57600080fd5b5061036860048036038101906103639190612e9d565b610e1f565b6040516103759190612f0b565b60405180910390f35b34801561038a57600080fd5b506103a560048036038101906103a09190613272565b610e31565b6040516103b291906134cf565b60405180910390f35b3480156103c757600080fd5b506103e260048036038101906103dd9190613272565b6110e2565b6040516103ef9190613060565b60405180910390f35b34801561040457600080fd5b5061040d61119c565b005b34801561041b57600080fd5b506104246111b0565b6040516104319190613060565b60405180910390f35b34801561044657600080fd5b50610461600480360381019061045c91906134f1565b6111b6565b60405161046e9190613060565b60405180910390f35b34801561048357600080fd5b5061048c611319565b6040516104999190612f0b565b60405180910390f35b6104bc60048036038101906104b7919061365c565b611342565b005b3480156104ca57600080fd5b506104d36117be565b6040516104e09190612e45565b60405180910390f35b3480156104f557600080fd5b50610510600480360381019061050b9190613272565b611850565b60405161051d9190612f0b565b60405180910390f35b34801561053257600080fd5b5061053b61188e565b6040516105489190613060565b60405180910390f35b34801561055d57600080fd5b50610578600480360381019061057391906136f7565b611894565b005b34801561058657600080fd5b506105a1600480360381019061059c91906137d8565b6118aa565b005b3480156105af57600080fd5b506105ca60048036038101906105c59190612e9d565b6118c7565b6040516105d79190612e45565b60405180910390f35b3480156105ec57600080fd5b506106076004803603810190610602919061385b565b6119da565b6040516106149190612d9a565b60405180910390f35b34801561062957600080fd5b50610644600480360381019061063f9190613272565b611a6e565b005b6000634906490660e01b7bffffffffffffffffffffffffffffffffffffffffffffffffffffffff1916827bffffffffffffffffffffffffffffffffffffffffffffffffffffffff191614806106a0575061069f82611af4565b5b9050919050565b6060600180546106b6906138ca565b80601f01602080910402602001604051908101604052809291908181526020018280546106e2906138ca565b801561072f5780601f106107045761010080835404028352916020019161072f565b820191906000526020600020905b81548152906001019060200180831161071257829003601f168201915b5050505050905090565b600061074482611bd6565b5061074e82611c5e565b9050919050565b6107678282610762611c9b565b611ca3565b5050565b600c60205280600052604060002060009150905080600001805461078e906138ca565b80601f01602080910402602001604051908101604052809291908181526020018280546107ba906138ca565b80156108075780601f106107dc57610100808354040283529160200191610807565b820191906000526020600020905b8154815290600101906020018083116107ea57829003601f168201915b50505050509080600101805461081c906138ca565b80601f0160208091040260200160405190810160405280929190818152602001828054610848906138ca565b80156108955780601f1061086a57610100808354040283529160200191610895565b820191906000526020600020905b81548152906001019060200180831161087857829003601f168201915b5050505050908060020154908060030154908060040160009054906101000a900473ffffffffffffffffffffffffffffffffffffffff16908060050180546108dc906138ca565b80601f0160208091040260200160405190810160405280929190818152602001828054610908906138ca565b80156109555780601f1061092a57610100808354040283529160200191610955565b820191906000526020600020905b81548152906001019060200180831161093857829003601f168201915b50505050509080600601805461096a906138ca565b80601f0160208091040260200160405190810160405280929190818152602001828054610996906138ca565b80156109e35780601f106109b8576101008083540402835291602001916109e3565b820191906000526020600020905b8154815290600101906020018083116109c657829003601f168201915b5050505050908060070180546109f8906138ca565b80601f0160208091040260200160405190810160405280929190818152602001828054610a24906138ca565b8015610a715780601f10610a4657610100808354040283529160200191610a71565b820191906000526020600020905b815481529060010190602001808311610a5457829003601f168201915b505050505090806008015490806009015490508a565b60085481565b600073ffffffffffffffffffffffffffffffffffffffff168273ffffffffffffffffffffffffffffffffffffffff1603610aff5760006040517f64a0ae92000000000000000000000000000000000000000000000000000000008152600401610af69190612f0b565b60405180910390fd5b6000610b138383610b0e611c9b565b611cb5565b90508373ffffffffffffffffffffffffffffffffffffffff168173ffffffffffffffffffffffffffffffffffffffff1614610b89578382826040517f64283d7b000000000000000000000000000000000000000000000000000000008152600401610b80939291906138fb565b60405180910390fd5b50505050565b610baa838383604051806020016040528060008152506118aa565b505050565b60008073ffffffffffffffffffffffffffffffffffffffff16600b60008673ffffffffffffffffffffffffffffffffffffffff1673ffffffffffffffffffffffffffffffffffffffff16815260200190815260200160002060000160009054906101000a900473ffffffffffffffffffffffffffffffffffffffff1673ffffffffffffffffffffffffffffffffffffffff1603610ce6576000600b60008673ffffffffffffffffffffffffffffffffffffffff1673ffffffffffffffffffffffffffffffffffffffff1681526020019081526020016000209050848160000160006101000a81548173ffffffffffffffffffffffffffffffffffffffff021916908373ffffffffffffffffffffffffffffffffffffffff160217905550600a6000815480929190610cdf90613961565b9190505550505b600b60008573ffffffffffffffffffffffffffffffffffffffff1673ffffffffffffffffffffffffffffffffffffffff16815260200190815260200160002060010183908060018154018082558091505060019003906000526020600020016000909190919091509081610d5a9190613b55565b50600b60008573ffffffffffffffffffffffffffffffffffffffff1673ffffffffffffffffffffffffffffffffffffffff1681526020019081526020016000206002018290806001815401808255809150506001900390600052602060002001600090919091909150556001600b60008673ffffffffffffffffffffffffffffffffffffffff1673ffffffffffffffffffffffffffffffffffffffff16815260200190815260200160002060020180549050610e169190613c27565b90509392505050565b6000610e2a82611bd6565b9050919050565b610e39612ca5565b600073ffffffffffffffffffffffffffffffffffffffff16600b60008473ffffffffffffffffffffffffffffffffffffffff1673ffffffffffffffffffffffffffffffffffffffff16815260200190815260200160002060000160009054906101000a900473ffffffffffffffffffffffffffffffffffffffff1673ffffffffffffffffffffffffffffffffffffffff1603610f0a576040517f08c379a0000000000000000000000000000000000000000000000000000000008152600401610f0190613ca7565b60405180910390fd5b600b60008373ffffffffffffffffffffffffffffffffffffffff1673ffffffffffffffffffffffffffffffffffffffff1681526020019081526020016000206040518060600160405290816000820160009054906101000a900473ffffffffffffffffffffffffffffffffffffffff1673ffffffffffffffffffffffffffffffffffffffff1673ffffffffffffffffffffffffffffffffffffffff16815260200160018201805480602002602001604051908101604052809291908181526020016000905b8282101561107b578382906000526020600020018054610fee906138ca565b80601f016020809104026020016040519081016040528092919081815260200182805461101a906138ca565b80156110675780601f1061103c57610100808354040283529160200191611067565b820191906000526020600020905b81548152906001019060200180831161104a57829003601f168201915b505050505081526020019060010190610fcf565b505050508152602001600282018054806020026020016040519081016040528092919081815260200182805480156110d257602002820191906000526020600020905b8154815260200190600101908083116110be575b5050505050815250509050919050565b60008073ffffffffffffffffffffffffffffffffffffffff168273ffffffffffffffffffffffffffffffffffffffff16036111555760006040517f89c62b6400000000000000000000000000000000000000000000000000000000815260040161114c9190612f0b565b60405180910390fd5b600460008373ffffffffffffffffffffffffffffffffffffffff1673ffffffffffffffffffffffffffffffffffffffff168152602001908152602001600020549050919050565b6111a4611ecf565b6111ae6000611f56565b565b600d5481565b60004288116111fa576040517f08c379a00000000000000000000000000000000000000000000000000000000081526004016111f190613d13565b60405180910390fd5b6000600c6000600d54815260200190815260200160002090508b8160000190816112249190613b55565b508a8160010190816112369190613b55565b50878160030181905550898160070190816112519190613b55565b50868160040160006101000a81548173ffffffffffffffffffffffffffffffffffffffff021916908373ffffffffffffffffffffffffffffffffffffffff160217905550858160050190816112a69190613b55565b50848160060190816112b89190613b55565b50600954896112c79190613d33565b8160020181905550838160080181905550828160090181905550600d60008154809291906112f490613961565b91905055506001600d546113089190613c27565b9150509a9950505050505050505050565b60008060009054906101000a900473ffffffffffffffffffffffffffffffffffffffff16905090565b600d548310611386576040517f08c379a000000000000000000000000000000000000000000000000000000000815260040161137d90613db3565b60405180910390fd5b600073ffffffffffffffffffffffffffffffffffffffff16600b60008473ffffffffffffffffffffffffffffffffffffffff1673ffffffffffffffffffffffffffffffffffffffff16815260200190815260200160002060000160009054906101000a900473ffffffffffffffffffffffffffffffffffffffff1673ffffffffffffffffffffffffffffffffffffffff16036114b65781600b60008473ffffffffffffffffffffffffffffffffffffffff1673ffffffffffffffffffffffffffffffffffffffff16815260200190815260200160002060000160006101000a81548173ffffffffffffffffffffffffffffffffffffffff021916908373ffffffffffffffffffffffffffffffffffffffff160217905550600a60008154809291906114b090613961565b91905055505b6000600c6000858152602001908152602001600020600801541161150f576040517f08c379a000000000000000000000000000000000000000000000000000000000815260040161150690613e1f565b60405180910390fd5b6000600c60008581526020019081526020016000206009015490506115333461201a565b61153c8161201a565b8034101561157f576040517f08c379a000000000000000000000000000000000000000000000000000000000815260040161157690613e8b565b60405180910390fd5b6000600854905061159084826120b3565b61159a81846121ac565b600b60008573ffffffffffffffffffffffffffffffffffffffff1673ffffffffffffffffffffffffffffffffffffffff1681526020019081526020016000206001018390806001815401808255809150506001900390600052602060002001600090919091909150908161160e9190613b55565b50600b60008573ffffffffffffffffffffffffffffffffffffffff1673ffffffffffffffffffffffffffffffffffffffff168152602001908152602001600020600201859080600181540180825580915050600190039060005260206000200160009091909190915055600c6000868152602001908152602001600020600801600081548092919061169f90613eab565b9190505550600c600086815260200190815260200160002060040160009054906101000a900473ffffffffffffffffffffffffffffffffffffffff1673ffffffffffffffffffffffffffffffffffffffff166108fc839081150290604051600060405180830381858888f19350505050158015611720573d6000803e3d6000fd5b508134111561177c578373ffffffffffffffffffffffffffffffffffffffff166108fc833461174f9190613c27565b9081150290604051600060405180830381858888f1935050505015801561177a573d6000803e3d6000fd5b505b61179f6040518060600160405280602381526020016140dd602391398233612208565b600860008154809291906117b290613961565b91905055505050505050565b6060600280546117cd906138ca565b80601f01602080910402602001604051908101604052809291908181526020018280546117f9906138ca565b80156118465780601f1061181b57610100808354040283529160200191611846565b820191906000526020600020905b81548152906001019060200180831161182957829003601f168201915b5050505050905090565b600b6020528060005260406000206000915090508060000160009054906101000a900473ffffffffffffffffffffffffffffffffffffffff16905081565b600a5481565b6118a661189f611c9b565b83836122a7565b5050565b6118b5848484610a8d565b6118c184848484612416565b50505050565b60606118d282611bd6565b5060006007600084815260200190815260200160002080546118f3906138ca565b80601f016020809104026020016040519081016040528092919081815260200182805461191f906138ca565b801561196c5780601f106119415761010080835404028352916020019161196c565b820191906000526020600020905b81548152906001019060200180831161194f57829003601f168201915b50505050509050600061197d6125cd565b905060008151036119925781925050506119d5565b6000825111156119c75780826040516020016119af929190613f10565b604051602081830303815290604052925050506119d5565b6119d0846125e4565b925050505b919050565b6000600660008473ffffffffffffffffffffffffffffffffffffffff1673ffffffffffffffffffffffffffffffffffffffff16815260200190815260200160002060008373ffffffffffffffffffffffffffffffffffffffff1673ffffffffffffffffffffffffffffffffffffffff16815260200190815260200160002060009054906101000a900460ff16905092915050565b611a76611ecf565b600073ffffffffffffffffffffffffffffffffffffffff168173ffffffffffffffffffffffffffffffffffffffff1603611ae85760006040517f1e4fbdf7000000000000000000000000000000000000000000000000000000008152600401611adf9190612f0b565b60405180910390fd5b611af181611f56565b50565b60007f80ac58cd000000000000000000000000000000000000000000000000000000007bffffffffffffffffffffffffffffffffffffffffffffffffffffffff1916827bffffffffffffffffffffffffffffffffffffffffffffffffffffffff19161480611bbf57507f5b5e139f000000000000000000000000000000000000000000000000000000007bffffffffffffffffffffffffffffffffffffffffffffffffffffffff1916827bffffffffffffffffffffffffffffffffffffffffffffffffffffffff1916145b80611bcf5750611bce8261264d565b5b9050919050565b600080611be2836126b7565b9050600073ffffffffffffffffffffffffffffffffffffffff168173ffffffffffffffffffffffffffffffffffffffff1603611c5557826040517f7e273289000000000000000000000000000000000000000000000000000000008152600401611c4c9190613060565b60405180910390fd5b80915050919050565b60006005600083815260200190815260200160002060009054906101000a900473ffffffffffffffffffffffffffffffffffffffff169050919050565b600033905090565b611cb083838360016126f4565b505050565b600080611cc1846126b7565b9050600073ffffffffffffffffffffffffffffffffffffffff168373ffffffffffffffffffffffffffffffffffffffff1614611d0357611d028184866128b9565b5b600073ffffffffffffffffffffffffffffffffffffffff168173ffffffffffffffffffffffffffffffffffffffff1614611d9457611d456000856000806126f4565b6001600460008373ffffffffffffffffffffffffffffffffffffffff1673ffffffffffffffffffffffffffffffffffffffff168152602001908152602001600020600082825403925050819055505b600073ffffffffffffffffffffffffffffffffffffffff168573ffffffffffffffffffffffffffffffffffffffff1614611e17576001600460008773ffffffffffffffffffffffffffffffffffffffff1673ffffffffffffffffffffffffffffffffffffffff168152602001908152602001600020600082825401925050819055505b846003600086815260200190815260200160002060006101000a81548173ffffffffffffffffffffffffffffffffffffffff021916908373ffffffffffffffffffffffffffffffffffffffff160217905550838573ffffffffffffffffffffffffffffffffffffffff168273ffffffffffffffffffffffffffffffffffffffff167fddf252ad1be2c89b69c2b068fc378daa952ba7f163c4a11628f55a4df523b3ef60405160405180910390a4809150509392505050565b611ed7611c9b565b73ffffffffffffffffffffffffffffffffffffffff16611ef5611319565b73ffffffffffffffffffffffffffffffffffffffff1614611f5457611f18611c9b565b6040517f118cdaa7000000000000000000000000000000000000000000000000000000008152600401611f4b9190612f0b565b60405180910390fd5b565b60008060009054906101000a900473ffffffffffffffffffffffffffffffffffffffff169050816000806101000a81548173ffffffffffffffffffffffffffffffffffffffff021916908373ffffffffffffffffffffffffffffffffffffffff1602179055508173ffffffffffffffffffffffffffffffffffffffff168173ffffffffffffffffffffffffffffffffffffffff167f8be0079c531659141344cd1fd0a4f28419497f9722a3daafe3b4186f6b6457e060405160405180910390a35050565b6120b08160405160240161202e9190613060565b6040516020818303038152906040527ff82c50f1000000000000000000000000000000000000000000000000000000007bffffffffffffffffffffffffffffffffffffffffffffffffffffffff19166020820180517bffffffffffffffffffffffffffffffffffffffffffffffffffffffff838183161783525050505061297d565b50565b600073ffffffffffffffffffffffffffffffffffffffff168273ffffffffffffffffffffffffffffffffffffffff16036121255760006040517f64a0ae9200000000000000000000000000000000000000000000000000000000815260040161211c9190612f0b565b60405180910390fd5b600061213383836000611cb5565b9050600073ffffffffffffffffffffffffffffffffffffffff168173ffffffffffffffffffffffffffffffffffffffff16146121a75760006040517f73c6ac6e00000000000000000000000000000000000000000000000000000000815260040161219e9190612f0b565b60405180910390fd5b505050565b806007600084815260200190815260200160002090816121cc9190613b55565b507ff8e1a15aba9398e019f0b49df1a4fde98ee17ae345cb5f6b5e2c27f5033e8ce7826040516121fc9190613060565b60405180910390a15050565b6122a283838360405160240161222093929190613f34565b6040516020818303038152906040527f1c7ec448000000000000000000000000000000000000000000000000000000007bffffffffffffffffffffffffffffffffffffffffffffffffffffffff19166020820180517bffffffffffffffffffffffffffffffffffffffffffffffffffffffff838183161783525050505061297d565b505050565b600073ffffffffffffffffffffffffffffffffffffffff168273ffffffffffffffffffffffffffffffffffffffff160361231857816040517f5b08ba1800000000000000000000000000000000000000000000000000000000815260040161230f9190612f0b565b60405180910390fd5b80600660008573ffffffffffffffffffffffffffffffffffffffff1673ffffffffffffffffffffffffffffffffffffffff16815260200190815260200160002060008473ffffffffffffffffffffffffffffffffffffffff1673ffffffffffffffffffffffffffffffffffffffff16815260200190815260200160002060006101000a81548160ff0219169083151502179055508173ffffffffffffffffffffffffffffffffffffffff168373ffffffffffffffffffffffffffffffffffffffff167f17307eab39ab6107e8899845ad3d59bd9653f200f220920489ca2b5937696c31836040516124099190612d9a565b60405180910390a3505050565b60008373ffffffffffffffffffffffffffffffffffffffff163b11156125c7578273ffffffffffffffffffffffffffffffffffffffff1663150b7a0261245a611c9b565b8685856040518563ffffffff1660e01b815260040161247c9493929190613fc7565b6020604051808303816000875af19250505080156124b857506040513d601f19601f820116820180604052508101906124b59190614028565b60015b61253c573d80600081146124e8576040519150601f19603f3d011682016040523d82523d6000602084013e6124ed565b606091505b50600081510361253457836040517f64a0ae9200000000000000000000000000000000000000000000000000000000815260040161252b9190612f0b565b60405180910390fd5b805181602001fd5b63150b7a0260e01b7bffffffffffffffffffffffffffffffffffffffffffffffffffffffff1916817bffffffffffffffffffffffffffffffffffffffffffffffffffffffff1916146125c557836040517f64a0ae920000000000000000000000000000000000000000000000000000000081526004016125bc9190612f0b565b60405180910390fd5b505b50505050565b606060405180602001604052806000815250905090565b60606125ef82611bd6565b5060006125fa6125cd565b9050600081511161261a5760405180602001604052806000815250612645565b8061262484612997565b604051602001612635929190613f10565b6040516020818303038152906040525b915050919050565b60007f01ffc9a7000000000000000000000000000000000000000000000000000000007bffffffffffffffffffffffffffffffffffffffffffffffffffffffff1916827bffffffffffffffffffffffffffffffffffffffffffffffffffffffff1916149050919050565b60006003600083815260200190815260200160002060009054906101000a900473ffffffffffffffffffffffffffffffffffffffff169050919050565b808061272d5750600073ffffffffffffffffffffffffffffffffffffffff168273ffffffffffffffffffffffffffffffffffffffff1614155b1561286157600061273d84611bd6565b9050600073ffffffffffffffffffffffffffffffffffffffff168373ffffffffffffffffffffffffffffffffffffffff16141580156127a857508273ffffffffffffffffffffffffffffffffffffffff168173ffffffffffffffffffffffffffffffffffffffff1614155b80156127bb57506127b981846119da565b155b156127fd57826040517fa9fbf51f0000000000000000000000000000000000000000000000000000000081526004016127f49190612f0b565b60405180910390fd5b811561285f57838573ffffffffffffffffffffffffffffffffffffffff168273ffffffffffffffffffffffffffffffffffffffff167f8c5be1e5ebec7d5bd14f71427d1e84f3dd0314c0f7b2291e5b200ac8c7c3b92560405160405180910390a45b505b836005600085815260200190815260200160002060006101000a81548173ffffffffffffffffffffffffffffffffffffffff021916908373ffffffffffffffffffffffffffffffffffffffff16021790555050505050565b6128c4838383612a65565b61297857600073ffffffffffffffffffffffffffffffffffffffff168373ffffffffffffffffffffffffffffffffffffffff160361293957806040517f7e2732890000000000000000000000000000000000000000000000000000000081526004016129309190613060565b60405180910390fd5b81816040517f177e802f00000000000000000000000000000000000000000000000000000000815260040161296f929190614055565b60405180910390fd5b505050565b6129948161298c612b26612b47565b63ffffffff16565b50565b6060600060016129a684612b52565b01905060008167ffffffffffffffff8111156129c5576129c46130d8565b5b6040519080825280601f01601f1916602001820160405280156129f75781602001600182028036833780820191505090505b509050600082602001820190505b600115612a5a578080600190039150507f3031323334353637383961626364656600000000000000000000000000000000600a86061a8153600a8581612a4e57612a4d61407e565b5b04945060008503612a05575b819350505050919050565b60008073ffffffffffffffffffffffffffffffffffffffff168373ffffffffffffffffffffffffffffffffffffffff1614158015612b1d57508273ffffffffffffffffffffffffffffffffffffffff168473ffffffffffffffffffffffffffffffffffffffff161480612ade5750612add84846119da565b5b80612b1c57508273ffffffffffffffffffffffffffffffffffffffff16612b0483611c5e565b73ffffffffffffffffffffffffffffffffffffffff16145b5b90509392505050565b60006a636f6e736f6c652e6c6f679050600080835160208501845afa505050565b612cdc819050919050565b600080600090507a184f03e93ff9f4daa797ed6e38ed64bf6a1f0100000000000000008310612bb0577a184f03e93ff9f4daa797ed6e38ed64bf6a1f0100000000000000008381612ba657612ba561407e565b5b0492506040810190505b6d04ee2d6d415b85acef81000000008310612bed576d04ee2d6d415b85acef81000000008381612be357612be261407e565b5b0492506020810190505b662386f26fc100008310612c1c57662386f26fc100008381612c1257612c1161407e565b5b0492506010810190505b6305f5e1008310612c45576305f5e1008381612c3b57612c3a61407e565b5b0492506008810190505b6127108310612c6a576127108381612c6057612c5f61407e565b5b0492506004810190505b60648310612c8d5760648381612c8357612c8261407e565b5b0492506002810190505b600a8310612c9c576001810190505b80915050919050565b6040518060600160405280600073ffffffffffffffffffffffffffffffffffffffff16815260200160608152602001606081525090565b612ce46140ad565b565b6000604051905090565b600080fd5b600080fd5b60007fffffffff0000000000000000000000000000000000000000000000000000000082169050919050565b612d2f81612cfa565b8114612d3a57600080fd5b50565b600081359050612d4c81612d26565b92915050565b600060208284031215612d6857612d67612cf0565b5b6000612d7684828501612d3d565b91505092915050565b60008115159050919050565b612d9481612d7f565b82525050565b6000602082019050612daf6000830184612d8b565b92915050565b600081519050919050565b600082825260208201905092915050565b60005b83811015612def578082015181840152602081019050612dd4565b60008484015250505050565b6000601f19601f8301169050919050565b6000612e1782612db5565b612e218185612dc0565b9350612e31818560208601612dd1565b612e3a81612dfb565b840191505092915050565b60006020820190508181036000830152612e5f8184612e0c565b905092915050565b6000819050919050565b612e7a81612e67565b8114612e8557600080fd5b50565b600081359050612e9781612e71565b92915050565b600060208284031215612eb357612eb2612cf0565b5b6000612ec184828501612e88565b91505092915050565b600073ffffffffffffffffffffffffffffffffffffffff82169050919050565b6000612ef582612eca565b9050919050565b612f0581612eea565b82525050565b6000602082019050612f206000830184612efc565b92915050565b612f2f81612eea565b8114612f3a57600080fd5b50565b600081359050612f4c81612f26565b92915050565b60008060408385031215612f6957612f68612cf0565b5b6000612f7785828601612f3d565b9250506020612f8885828601612e88565b9150509250929050565b612f9b81612e67565b82525050565b6000610140820190508181036000830152612fbc818d612e0c565b90508181036020830152612fd0818c612e0c565b9050612fdf604083018b612f92565b612fec606083018a612f92565b612ff96080830189612efc565b81810360a083015261300b8188612e0c565b905081810360c083015261301f8187612e0c565b905081810360e08301526130338186612e0c565b9050613043610100830185612f92565b613051610120830184612f92565b9b9a5050505050505050505050565b60006020820190506130756000830184612f92565b92915050565b60008060006060848603121561309457613093612cf0565b5b60006130a286828701612f3d565b93505060206130b386828701612f3d565b92505060406130c486828701612e88565b9150509250925092565b600080fd5b600080fd5b7f4e487b7100000000000000000000000000000000000000000000000000000000600052604160045260246000fd5b61311082612dfb565b810181811067ffffffffffffffff8211171561312f5761312e6130d8565b5b80604052505050565b6000613142612ce6565b905061314e8282613107565b919050565b600067ffffffffffffffff82111561316e5761316d6130d8565b5b61317782612dfb565b9050602081019050919050565b82818337600083830152505050565b60006131a66131a184613153565b613138565b9050828152602081018484840111156131c2576131c16130d3565b5b6131cd848285613184565b509392505050565b600082601f8301126131ea576131e96130ce565b5b81356131fa848260208601613193565b91505092915050565b60008060006060848603121561321c5761321b612cf0565b5b600061322a86828701612f3d565b935050602084013567ffffffffffffffff81111561324b5761324a612cf5565b5b613257868287016131d5565b925050604061326886828701612e88565b9150509250925092565b60006020828403121561328857613287612cf0565b5b600061329684828501612f3d565b91505092915050565b6132a881612eea565b82525050565b600081519050919050565b600082825260208201905092915050565b6000819050602082019050919050565b600082825260208201905092915050565b60006132f682612db5565b61330081856132da565b9350613310818560208601612dd1565b61331981612dfb565b840191505092915050565b600061333083836132eb565b905092915050565b6000602082019050919050565b6000613350826132ae565b61335a81856132b9565b93508360208202850161336c856132ca565b8060005b858110156133a857848403895281516133898582613324565b945061339483613338565b925060208a01995050600181019050613370565b50829750879550505050505092915050565b600081519050919050565b600082825260208201905092915050565b6000819050602082019050919050565b6133ef81612e67565b82525050565b600061340183836133e6565b60208301905092915050565b6000602082019050919050565b6000613425826133ba565b61342f81856133c5565b935061343a836133d6565b8060005b8381101561346b57815161345288826133f5565b975061345d8361340d565b92505060018101905061343e565b5085935050505092915050565b6000606083016000830151613490600086018261329f565b50602083015184820360208601526134a88282613345565b915050604083015184820360408601526134c2828261341a565b9150508091505092915050565b600060208201905081810360008301526134e98184613478565b905092915050565b6000806000806000806000806000806101408b8d03121561351557613514612cf0565b5b60008b013567ffffffffffffffff81111561353357613532612cf5565b5b61353f8d828e016131d5565b9a505060208b013567ffffffffffffffff8111156135605761355f612cf5565b5b61356c8d828e016131d5565b99505060408b013567ffffffffffffffff81111561358d5761358c612cf5565b5b6135998d828e016131d5565b98505060606135aa8d828e01612e88565b97505060806135bb8d828e01612e88565b96505060a06135cc8d828e01612f3d565b95505060c08b013567ffffffffffffffff8111156135ed576135ec612cf5565b5b6135f98d828e016131d5565b94505060e08b013567ffffffffffffffff81111561361a57613619612cf5565b5b6136268d828e016131d5565b9350506101006136388d828e01612e88565b92505061012061364a8d828e01612e88565b9150509295989b9194979a5092959850565b60008060006060848603121561367557613674612cf0565b5b600061368386828701612e88565b935050602061369486828701612f3d565b925050604084013567ffffffffffffffff8111156136b5576136b4612cf5565b5b6136c1868287016131d5565b9150509250925092565b6136d481612d7f565b81146136df57600080fd5b50565b6000813590506136f1816136cb565b92915050565b6000806040838503121561370e5761370d612cf0565b5b600061371c85828601612f3d565b925050602061372d858286016136e2565b9150509250929050565b600067ffffffffffffffff821115613752576137516130d8565b5b61375b82612dfb565b9050602081019050919050565b600061377b61377684613737565b613138565b905082815260208101848484011115613797576137966130d3565b5b6137a2848285613184565b509392505050565b600082601f8301126137bf576137be6130ce565b5b81356137cf848260208601613768565b91505092915050565b600080600080608085870312156137f2576137f1612cf0565b5b600061380087828801612f3d565b945050602061381187828801612f3d565b935050604061382287828801612e88565b925050606085013567ffffffffffffffff81111561384357613842612cf5565b5b61384f878288016137aa565b91505092959194509250565b6000806040838503121561387257613871612cf0565b5b600061388085828601612f3d565b925050602061389185828601612f3d565b9150509250929050565b7f4e487b7100000000000000000000000000000000000000000000000000000000600052602260045260246000fd5b600060028204905060018216806138e257607f821691505b6020821081036138f5576138f461389b565b5b50919050565b60006060820190506139106000830186612efc565b61391d6020830185612f92565b61392a6040830184612efc565b949350505050565b7f4e487b7100000000000000000000000000000000000000000000000000000000600052601160045260246000fd5b600061396c82612e67565b91507fffffffffffffffffffffffffffffffffffffffffffffffffffffffffffffffff820361399e5761399d613932565b5b600182019050919050565b60008190508160005260206000209050919050565b60006020601f8301049050919050565b600082821b905092915050565b600060088302613a0b7fffffffffffffffffffffffffffffffffffffffffffffffffffffffffffffffff826139ce565b613a1586836139ce565b95508019841693508086168417925050509392505050565b6000819050919050565b6000613a52613a4d613a4884612e67565b613a2d565b612e67565b9050919050565b6000819050919050565b613a6c83613a37565b613a80613a7882613a59565b8484546139db565b825550505050565b600090565b613a95613a88565b613aa0818484613a63565b505050565b5b81811015613ac457613ab9600082613a8d565b600181019050613aa6565b5050565b601f821115613b0957613ada816139a9565b613ae3846139be565b81016020851015613af2578190505b613b06613afe856139be565b830182613aa5565b50505b505050565b600082821c905092915050565b6000613b2c60001984600802613b0e565b1980831691505092915050565b6000613b458383613b1b565b9150826002028217905092915050565b613b5e82612db5565b67ffffffffffffffff811115613b7757613b766130d8565b5b613b8182546138ca565b613b8c828285613ac8565b600060209050601f831160018114613bbf5760008415613bad578287015190505b613bb78582613b39565b865550613c1f565b601f198416613bcd866139a9565b60005b82811015613bf557848901518255600182019150602085019450602081019050613bd0565b86831015613c125784890151613c0e601f891682613b1b565b8355505b6001600288020188555050505b505050505050565b6000613c3282612e67565b9150613c3d83612e67565b9250828203905081811115613c5557613c54613932565b5b92915050565b7f427579657220646f6573206e6f74206578697374000000000000000000000000600082015250565b6000613c91601483612dc0565b9150613c9c82613c5b565b602082019050919050565b60006020820190508181036000830152613cc081613c84565b9050919050565b7f6576656e742074696d65206d75737420626520696e2074686520667574757265600082015250565b6000613cfd602083612dc0565b9150613d0882613cc7565b602082019050919050565b60006020820190508181036000830152613d2c81613cf0565b9050919050565b6000613d3e82612e67565b9150613d4983612e67565b9250828201905080821115613d6157613d60613932565b5b92915050565b7f496e76616c6964206576656e7420494400000000000000000000000000000000600082015250565b6000613d9d601083612dc0565b9150613da882613d67565b602082019050919050565b60006020820190508181036000830152613dcc81613d90565b9050919050565b7f4e6f20617661696c61626c65207469636b657473000000000000000000000000600082015250565b6000613e09601483612dc0565b9150613e1482613dd3565b602082019050919050565b60006020820190508181036000830152613e3881613dfc565b9050919050565b7f496e73756666696369656e742066756e64730000000000000000000000000000600082015250565b6000613e75601283612dc0565b9150613e8082613e3f565b602082019050919050565b60006020820190508181036000830152613ea481613e68565b9050919050565b6000613eb682612e67565b915060008203613ec957613ec8613932565b5b600182039050919050565b600081905092915050565b6000613eea82612db5565b613ef48185613ed4565b9350613f04818560208601612dd1565b80840191505092915050565b6000613f1c8285613edf565b9150613f288284613edf565b91508190509392505050565b60006060820190508181036000830152613f4e8186612e0c565b9050613f5d6020830185612f92565b613f6a6040830184612efc565b949350505050565b600081519050919050565b600082825260208201905092915050565b6000613f9982613f72565b613fa38185613f7d565b9350613fb3818560208601612dd1565b613fbc81612dfb565b840191505092915050565b6000608082019050613fdc6000830187612efc565b613fe96020830186612efc565b613ff66040830185612f92565b81810360608301526140088184613f8e565b905095945050505050565b60008151905061402281612d26565b92915050565b60006020828403121561403e5761403d612cf0565b5b600061404c84828501614013565b91505092915050565b600060408201905061406a6000830185612efc565b6140776020830184612f92565b9392505050565b7f4e487b7100000000000000000000000000000000000000000000000000000000600052601260045260246000fd5b7f4e487b7100000000000000000000000000000000000000000000000000000000600052605160045260246000fdfe546865204e465420494420257320686173206265656e206d696e74656420746f202573a2646970667358221220781ce88eb3a0e9afa40f23edd938d2415620d92a3d7c2663629fd79a5fbbbedd64736f6c63430008140033",
	"linkReferences": {},
	"deployedLinkReferences": {}
}